:100000000C94320B0C947B0B0C947B0B0C947B0BA1
:100010000C947B0B0C947B0B0C947B0B0C947B0B48
:100020000C947B0B0C947B0B0C9491270C946828FC
:100030000C94071E0C947B0B0C947B0B0C947B0B89
:100040000C947B0B0C947B0B0C947B0B0C947B0B18
:100050000C947B0B0C94681E0C947B0B0C947B0B08
:100060000C947B0B0C947B0B0C947B0B0C947B0BF8
:100070000C947B0B0C947B0B0C947B0B0C947B0BE8
:100080000C947B0B0C947B0B0C947B0B0C947B0BD8
:100090000C947B0B0C947B0B290000003A003B0076
:1000A0003C003D0000003E003F0040004100420097
:1000B0004300440045006800690032700000307061
:1000C000317000706E0000000000000000000000B1
:1000D0000000000000000000000000000000000020
:1000E0000000000000000000000000000000000010
:1000F0000000000035001E001F002000210022002B
:10010000230024002500260027002D002E000000DB
:100110002A0049004A004B00000053003800250225
:100120002D002B00000014001A0008001500170015
:100130001C0018000C00120013002F0030002800D3
:100140004C004D004E0000004A0000004B002E0203
:100150003900000004001600070009000A000B0027
:100160000D000E000F0033003400200200000000DC
:100170000000000000000000220000000000E1007C
:1001800031001D001B0006001900050011001000C1
:100190003600370038000000E100000000000000D9
:1001A000000000004D0000004E002800E0000000AC
:1001B00000000000000000002C0000000000000013
:1001C0000000E30000007600E000000000000000F6
:1001D0000000490000004C00000001000000010088
:1001E0000100010001000000010001000100010008
:1001F00001000100010001000100010001000000F8
:1002000001000100010001000000000000000000EA
:1002100000000000000000000000000000000000DE
:1002200000000000000000000000000000000000CE
:1002300000000000000001000100010001000100B9
:1002400001000100010001000100010001000100A6
:100250000000010001000100010000000100010098
:100260000100010001000000010001000100010087
:100270000100010001000100010001000100010076
:100280000100010001000100000001000100010067
:100290000100010000000100010001000100010057
:1002A0000100010001000100010001000100000047
:1002B000000000000000000001000100010000003B
:1002C0000100010001000100010001000100010026
:1002D0000100010001000100000001000000000019
:1002E0000100000000000100010001000100010008
:1002F00001000000010000000000010000000000FB
:1003000000000100010000000100010001000100E7
:1003100001000000010000000100000001000000D9
:1003200001000100010001000000010001000100C6
:1003300001000100010001000100010001000100B5
:1003400000000100010001000100000000000000A9
:10035000000000000000000000000000000000009D
:10036000000000000000000000000000000000008D
:100370000000000000000000010001000100010079
:100380000100010001000100010001000100010065
:100390000100000001000100010001000000010057
:1003A0000100010001000100000001000100010046
:1003B0000100010001000100010001000100010035
:1003C0000100010001000100010000000100010026
:1003D0000100010001000000010001000100010016
:1003E0000100010001000100010001000100010005
:1003F00000000000000000000000010001000100FA
:1004000000000100010001000100010001000100E5
:1004100001000100010001000100000001000000D6
:1004200000000100000000000100010001000100C7
:1004300001000100000001000000000001000000B8
:1004400000000000010001000000010001000100A7
:100450000100010000000100000001000000010097
:100460000000010001000100010000000100010086
:100470000100010001000100010001000100010074
:100480000100000001000100010001000000000067
:10049000000000000000000000000000000000005C
:1004A000000000000000000000000000000000004C
:1004B0000000000000000000000001000100010039
:1004C0000100010001000100010001000100010024
:1004D0000100010000000100010001000100000016
:1004E0000100010001000100010000000100010005
:1004F00001000100010001000100010001000100F4
:1005000001000100010001000100010000000100E4
:1005100001000100010001000000010001000100D4
:1005200001000100010001000100010001000100C3
:1005300001000000000000000000000001000100B8
:1005400001000000010001000100010001000100A4
:100550000100010001000100010001000000010094
:100560000000000001000000000001000100010087
:100570000100010001000000010000000000010076
:100580000000000000000100010000000100010067
:100590000100010001000000010000000100000056
:1005A0000100000001000100010001000000010045
:1005B0000100010001000100010001000100010033
:1005C0000100010000000100010001000100000025
:1005D000000000000000000000000000000000001B
:1005E000000000000000000000000000000000000B
:1005F00000000000000000000000000001000100F9
:1006000001000100010001000100010001000100E2
:1006100001000100010000000100010001000100D3
:1006200000000100010001000100010000000100C4
:1006300001000100010001000100010001000100B2
:1006400001000100010001000100010001000000A3
:100650000100010001000100010000000100010093
:100660000100010001000100010001000100010082
:100670000100010000000000000000000000010077
:100680000100010000000100010001000100010063
:100690000100010001000100010001000100000053
:1006A0000100000000000100000000000100010046
:1006B0000100010001000100000001000000000035
:1006C0000100000000000000010001000000010026
:1006D0000100010001000100000001000000010014
:1006E0000000010000000100010001000100000005
:1006F00001000100010001000100010001000100F2
:1007000001000100010000000100010001000100E2
:1007100000000000000000000000000000000000D9
:1007200000000000000000000000000000000000C9
:1007300000000000000000000000000000000100B8
:1007400001000100010001000100010001000100A1
:100750000100010001000100000001000100010092
:100760000100000001000100010001000100000083
:100770000100010001000100010001000100010071
:100780000100010001000100010001000100010061
:100790000000010001000100010001000000010053
:1007A0000100010001000100010001000100010041
:1007B0000100010001000000000000000000000036
:1007C0000100010001000000010001000100010022
:1007D0000100010001000100010001000100010011
:1007E0000000010000000000010000000000010006
:1007F00001000100010001000100000001000000F3
:1008000000000100000000000000010001000000E5
:1008100001000100010001000100000001000000D2
:1008200001000000010000000100010001000100C2
:1008300000000100010001000100010001000100B1
:1008400001000100010001000000010001000100A1
:100850000100000000000000000000000000000097
:100860000000000000000000000000000000000088
:100870000000000000000000000000000000000078
:100880000100010001000100010001000100010060
:100890000100010001000100010000000100010051
:1008A0000100010000000100010001000100010041
:1008B0000000010001000100010001000100010031
:1008C0000100010001000100010001000100010020
:1008D0000100000001000100010001000100000012
:1008E0000100010001000100010001000100010000
:1008F00001000100010001000000000000000000F4
:1009000000000100010001000000010001000100E1
:1009100001000100010001000100010001000100CF
:1009200001000000010000000000010000000000C4
:1009300001000100010001000100010000000100B0
:1009400000000000010000000000000001000100A4
:100950000000010001000100010001000000010091
:100960000000010000000100000001000100010082
:100970000100000001000100010001000100010070
:100980000100010001000100010000000100010060
:100990000100010000000000000000000000000055
:1009A0000000000000000000000000000000000047
:1009B0000000000000000000000000000000000037
:1009C0000000010001000100010001000100010020
:1009D0000100010001000100010001000000010010
:1009E0000100010001000000010001000100010000
:1009F00001000000010001000100010001000100F0
:100A000001000100010001000100010001000100DE
:100A100001000100000001000100010001000100CF
:100A200000000100010001000100010001000100BF
:100A300001000100010001000100000000000000B1
:100A400000000000010001000100000001000100A1
:100A5000010001000100010001000100010001008E
:100A60000100010000000100000000000100000082
:100A70000000010001000100010001000100000070
:100A80000100000000000100000000000000010063
:100A90000100000001000100010001000100000050
:100AA0000100000001000000010000000100010041
:100AB000010001000000010001000100010001002F
:100AC000010001000100010001000100000001001F
:100AD0000100010001000000000000000000000013
:100AE0000000000000000000000000000000000006
:100AF00000000000000000000000000000000000F6
:100B000000000000010001000100010001000100DF
:100B100001000100010001000100010001000000CE
:100B200001000100010001000000010001000100BE
:100B300001000100000001000100010001000100AE
:100B4000010001000100010001000100010001009D
:100B5000010001000100000001000100010001008E
:100B6000010000000100010001000100010001007E
:100B7000010001000100010001000100000000006F
:100B80000000000000000100010001000000010061
:100B9000010001000100010001000100010001004D
:100BA0000100010001000000010000000000010040
:100BB000000000000100010001000100010001002F
:100BC0000000010000000000010000000000000023
:100BD000010001000000010001000100010001000E
:100BE0000000010000000100000001000000010001
:100BF00001000100010000000100010001000100EE
:100C000001000100010001000100010001000000DD
:100C100001000100010001000000000000000000D0
:100C200000000000000000000000000000000000C4
:100C300000000000000000000000000000000000B4
:100C4000000000000000010001000100010001009F
:100C5000010001000100010001000100010001008C
:100C6000000001000100010001000000010001007E
:100C7000010001000100000001000100010001006D
:100C8000010001000100010001000100010001005C
:100C9000010001000100010000000100010001004D
:100CA000010001000000010001000100010001003D
:100CB000010001000100010001000100010000002D
:100CC0000000000000000000010001000100000021
:100CD000010001000100010001000100010001000C
:100CE00001000100010001000000010000000000FF
:100CF00001000000000001000100010001000100EE
:100D000001000000010000000000010000000000E0
:100D100000000100010000000100010001000100CD
:100D200001000000010000000100000001000000BF
:100D300001000100010001000000010001000100AC
:100D4000010001000100010001000100010001009B
:100D5000000001000100010001000000000000008F
:100D60000000000000000000000000000000000083
:100D70000000000000000000000000000000000073
:100D8000000000000000000001000100010001005F
:100D9000010001000100010001000100010001004B
:100DA000010000000100010001000100000001003D
:100DB000010001000100010000000100010001002C
:100DC000010001000100010001000100010001001B
:100DD000010001000100010001000000010001000C
:100DE00001000100010000000100010001000100FC
:100DF00001000100010001000100010001000100EB
:100E000000000000000000000000010001000100DF
:100E100000000100010001000100010001000100CB
:100E200001000100010001000100000001000000BC
:100E300000000100000000000100010001000100AD
:100E4000010001000000010000000000010000009E
:100E5000000000000100010000000100010001008D
:100E6000010001000000010000000100000001007D
:100E7000000001000100010001000000010001006C
:100E8000010001000100010001000100010001005A
:100E9000010000000100010001000100000000004D
:100EA0000000000000000000000000000000000042
:100EB0000000000000000000000000000000000032
:100EC000000000000000000000000100010001001F
:100ED000010001000100010001000100010001000A
:100EE00001000100000001000100010001000000FC
:100EF00001000100010001000100000001000100EB
:100F000001000100010001000100010001000100D9
:100F100001000100010001000100010000000100CA
:100F200001000100010001000000010001000100BA
:100F300001000100010001000100010001000100A9
:100F4000010000000000000000000000010001009E
:100F5000010000000100010001000100010001008A
:100F6000010001000100010001000100000001007A
:100F7000000000000100000000000100010001006D
:100F8000010001000100000001000000000001005C
:100F9000000000000000010001000000010001004D
:100FA000010001000100000001000000010000003C
:100FB000010000000100010001000100000001002B
:100FC0000100010001000100010001000100010019
:100FD000010001000000010001000100010000000B
:100FE0000000000000000000000000000000000001
:100FF00000000000000000000000000000000000F1
:1010000000000000000000000000000001000100DE
:1010100001000100010001000100010001000100C8
:1010200001000100010000000100010001000100B9
:1010300000000100010001000100010000000100AA
:101040000100010001000100010001000100010098
:101050000100010001000100010001000100000089
:101060000100010001000100010000000100010079
:101070000100010001000100010001000100010068
:10108000010001000000000000000000000001005D
:101090000100010000000100010001000100010049
:1010A0000100010001000100010001000100000039
:1010B000010000000000010000000000010001002C
:1010C000010001000100010000000100000000001B
:1010D000010000000000000001000100000001000C
:1010E00001000100010001000000010000000100FA
:1010F00000000100000001000100010001000000EB
:1011000001000100010001000100010001000100D7
:1011100001000100010000000100010001000100C8
:1011200000000000000000000000000000000000BF
:1011300000000000000000000000000000000000AF
:10114000000000000000000000000000000001009E
:101150000100010001000100010001000100010087
:101160000100010001000100000001000100010078
:101170000100000001000100010001000100000069
:101180000100010001000100010001000100010057
:101190000100010001000100010001000100010047
:1011A0000000010001000100010001000000010039
:1011B0000100010001000100010001000100010027
:1011C000010001000100000000000000000000001C
:1011D0000100010001000000010001000100010008
:1011E00001000100010001000100010001000100F7
:1011F00000000100000000000100000000000100EC
:1012000001000100010001000100000001000000D8
:1012100000000100000000000000010001000000CB
:1012200001000100010001000100000001000000B8
:1012300001000000010000000100010001000100A8
:101240000000010001000100010001000100010097
:101250000100010001000100000001000100010087
:10126000010000000000000000000000000000007D
:10127000000000000000000000000000000000006E
:10128000000000000000000000000000000000005E
:101290000100010001000100010001000100010046
:1012A0000100010001000100010000000100010037
:1012B0000100010000000100010001000100010027
:1012C0000000010001000100010001000100010017
:1012D0000100010001000100010001000100010006
:1012E00001000000010001000100010001000000F8
:1012F00001000100010001000100010001000100E6
:1013000001000100010001000000000000000000D9
:1013100000000100010001000000010001000100C7
:1013200001000100010001000100010001000100B5
:1013300001000000010000000000010000000000AA
:101340000100010001000100010001000000010096
:10135000000000000100000000000000010001008A
:101360000000010001000100010001000000010077
:101370000000010000000100000001000100010068
:101380000100000001000100010001000100010056
:101390000100010001000100010000000100010046
:1013A000010001000000000000000000000000003B
:1013B000000000000000000000000000000000002D
:1013C000000000000000000000000000000000001D
:1013D0000000010001000100010001000100010006
:1013E00001000100010001000100010000000100F6
:1013F00001000100010000000100010001000100E6
:1014000001000000010001000100010001000100D5
:1014100001000100010001000100010001000100C4
:1014200001000100000001000100010001000100B5
:1014300000000100010001000100010001000100A5
:101440000100010001000100010000000000000097
:101450000000000001000100010000000100010087
:101460000100010001000100010001000100010074
:101470000100010000000100000000000100000068
:101480000000010001000100010001000100000056
:101490000100000000000100000000000000010049
:1014A0000100000001000100010001000100000036
:1014B000010000000100000012036B0065007900CC
:1014C00062006F006100720064000000160371008A
:1014D0006D006B006200750069006C0064006500BF
:1014E000720000000403090409026D00040100A059
:1014F000FA090400000103010100092111010001A2
:101500002240000705810308000A090401000103C5
:10151000010200092111010001224D00070582038B
:1015200008000A090402000103000000092111015A
:1015300000012236000705830308000A090403009E
:1015400001030000000921110100012239000705F3
:1015500084032000011201100100000008EDFE606C
:101560006001000102000105010906A1010507193A
:10157000E029E71500250195087501810205081984
:1015800001290595057501910295017503910105E4
:1015900007190029F71500250195F875018102C08A
:1015A00005010980A10185021601002603001A81A8
:1015B000002A8300751095018100C0050C0901A166
:1015C000018503160100269C021A01002A9C02755F
:1015D0001095018100C005010902A1010901A100C6
:1015E00005091901290515002501950575018102D7
:1015F0009501750381010501093009311581257FA8
:1016000095027508810609381581257F95017508B1
:101610008106050C0A38021581257F950175088120
:1016200006C0C005010906A101050719E029E71553
:101630000025019508750181029501750881010554
:101640000819012905950575019102950175039108
:10165000010507190029FF150026FF0095067508EA
:101660008100C00011241FBECFEFD0E2DEBFCDBF8E
:1016700004B603FE27C08091C6029091C702A091D4
:10168000C802B091C9028730904BA740B04BD1F44B
:101690001092C6021092C7021092C8021092C9029C
:1016A00014BE84B7877F84BF0FB6F894A895809145
:1016B0006000886180936000109260000FBEE0E0DF
:1016C000F8EF099511E0A0E0B1E0E8EBF7E500E004
:1016D0000BBF02C007900D92A634B107D9F722E0E4
:1016E000A6E4B1E001C01D92A63CB207E1F70E945A
:1016F000E4240C94AE2B0C94000090E080E008955C
:101700000895089581E00895089581E008950C9466
:10171000820B0E9435162FEF84E39CE0215080401D
:101720009040E1F700C000000C948B1EEF92FF92F6
:101730000F931F93CF93DF938C01FC01E080F18026
:101740008091B601811140C082818823C1F1C70117
:101750000E94BA1BC82F682FC7010E94631BB701E4
:101760008C2F0E940C0DEC01B8010E94870B88237E
:1017700009F44BC0B801CE010E94440F882309F43C
:1017800044C0C531F0E7DF0720F5C23080E7D80755
:1017900008F04DC0C115E0E7DE0791F1C130D04738
:1017A000E1F181E08093480180934901C801DF9114
:1017B000CF911F910F91FF90EF900C94850BC70173
:1017C0000E94911BC82FCBCFC7010E94BA1BB70143
:1017D000C8CFCC3380E7D80709F49BC0CD33D047BE
:1017E00001F7F8018281882309F4BAC010924901F7
:1017F0000E94371E909347018093460180E296C075
:10180000F801828181110E94890B80E0DF91CF91E4
:101810001F910F91FF90EF900895F8018281882326
:10182000A1F380918502816080938502EECFF8015B
:101830008281882309F4BACF0E947A1D811102C0E7
:101840000E945B1D0E94971D90E09093B7028093C9
:10185000B602FE01E350F0478091B6028160E231AA
:10186000F10538F4E055F44D0C945B2B8091B602F1
:1018700082608093B6028091B6020E949B1D0E94F6
:101880003516C3CF8091B6028460F3CF8091B60243
:101890008860EFCF8091B6028061EBCF8091B60275
:1018A0008062E7CF8091B6028064E3CF8091B60278
:1018B0008068DFCF8091B6028C60DBCF8091B6026A
:1018C0008E7FD7CF8091B6028D7FD3CF8091B60225
:1018D0008B7FCFCF8091B602877FCBCF8091B6022E
:1018E0008F7EC7CF8091B6028F7DC3CF8091B60225
:1018F0008F7BBFCF8091B6028F77BBCF8091B6022E
:10190000837FB7CF9091B602892F97FB87F98058D4
:10191000B0CFF8018281882361F0109248010E94C3
:10192000371E909347018093460182E00E947A130C
:101930006CCF8091480181110FC080914601909138
:1019400047010E94431E883C910530F486E20E94C4
:101950004F1286E20E942B1382E00E94811355CF22
:101960008091490181110FC08091460190914701FA
:101970000E94431E883C910530F487E20E944F127A
:1019800087E20E942B1380E2E8CF0C94950F279AF0
:101990002F988FEF9FEF90938700809386008AE0C7
:1019A0008093800089E1809381000C9496220E94AC
:1019B000C70C0C94930F282F2F9880918000211131
:1019C00008C0877F8093800010928D0010928C0059
:1019D0000895886080938000233039F48FEF9FEF63
:1019E00090938D0080938C00089583E090E0821B9B
:1019F0009109880F991F2FEF3FEF02C03695279569
:101A00008A95E2F730938D0020938C0008950C9412
:101A1000840B0C94070D0895972F70E027E1929F97
:101A2000600D711D1124FB0191EA899FE00DF11DEC
:101A30001124EE0FFF1FE856FF4F859194910895F2
:101A4000FC01EE0FFF1FE854FB4E85919491089521
:101A50000E940C0D0E94C80E9C01211581E53807DB
:101A600008F046C0211590E5390708F00CC1283E62
:101A7000310518F5203E3105C8F5283A310578F4CE
:101A8000253A310508F097C02130310579F1C901B7
:101A90000497813A910550F130E020E027C02D3BBA
:101AA000310508F493C0C901805C91098032910529
:101AB00098F70E94200D9C0119C0211580E338077A
:101AC00070F4211590E2390708F0D7C02F3F310597
:101AD00009F060F4203F3105F8F2306507C02115A8
:101AE00080E4380708F4CCC03F70306AC90108951B
:101AF000211590E73907C8F5211580E6380708F069
:101B0000FAC0211594E53907F0F4211583E538076B
:101B100008F0D8C0211592E5390708F4CEC0C901F4
:101B20008370992741E050E002C0440F551F8A9509
:101B3000E2F72695269580E2289F90011124242B18
:101B4000352B3C68D3CF211595E5390708F4CEC075
:101B5000C90195558F3F910511F008F09DCF322FA7
:101B6000222722273F713062C1CF213380E7380717
:101B700009F4C3C0A0F4203380E7380748F42032CA
:101B800090E7390708F488CF20523047346DAECF44
:101B90002033304709F080CF20E031EDA7CF22334A
:101BA00090E7390709F4ACC02333304709F074CF0C
:101BB00020E033ED9BCF253A310509F4A4C0263A45
:101BC000310509F0A3C022E830E490CF283A31056E
:101BD00009F49FC0293A310509F49EC02A3A31051B
:101BE00009F49DC02B3A310509F49CC02C3A31050B
:101BF00009F49BC02B3B310509F49AC02C3B3105FD
:101C000009F499C02D3A310509F498C0203B3105FB
:101C100009F497C02E3A310509F496C02F3A3105E0
:101C200009F495C0213B310509F494C0223B3105EC
:101C300009F493C0233B310509F492C0243B3105DC
:101C400009F491C0253B310509F490C0263B3105CC
:101C500009F48FC0273B310509F48EC0283B3105BC
:101C600009F48DC0293B310509F48CC02A3B3105AC
:101C700009F48BC020E034E439CFC9019F7019CF3B
:101C80003327306C33CFC90154E0969587955A9528
:101C9000E1F78370422F46954695437090E2499F45
:101CA000A0011124582B822F837021E030E002C064
:101CB000220F331F8A95E2F742CF322F2227216F5E
:101CC000306A14CFC9018370992741E050E002C007
:101CD000440F551F8A95E2F72695269580E2289FA6
:101CE00090011124242B352B3A6800CF322F222764
:101CF000246F306AFBCE3F7036CF20E030EDF6CE59
:101D000020E032EDF3CE21E830E4F0CE23E830E4F9
:101D1000EDCE22EE34E4EACE29EE34E4E7CE2AEE2C
:101D200034E4E4CE25EB34E4E1CE26EB34E4DECE3D
:101D300023EB34E4DBCE24EB34E4D8CE27EB34E4DD
:101D4000D5CE2CEC34E4D2CE2DEC34E4CFCE23E847
:101D500035E4CCCE2AE835E4C9CE22E935E4C6CE56
:101D600024E935E4C3CE21E236E4C0CE23E236E4F2
:101D7000BDCE24E236E4BACE25E236E4B7CE26E282
:101D800036E4B4CE27E236E4B1CE2AE236E4AECE73
:101D9000803E910581F1C8F48133910509F462C058
:101DA00048F48932910509F456C08A32910509F444
:101DB00060C0089589339105B9F082389105A1F08A
:101DC0008533910509F440C00895863E910561F17F
:101DD00038F4823E9105B1F0833E9105E1F008951B
:101DE000873E910551F108952091B6022370D9F0F4
:101DF00080EE90E008952091B60220FF14C089E3A0
:101E000090E008952091B60222FF0DC024FD09C084
:101E100083EE90E008952091B60222FD31C024FFA8
:101E200002C090E080E008952091B60223FFFBCF2E
:101E300024FDF7CF87EE90E008952091B60223FFAE
:101E4000EECF86EE90E008952091B60225FFEBCF0D
:101E500089E290E008952091B60225FFE4CF85E362
:101E600090E008952091B60226FFDDCF8AE290E04F
:101E700008952091B60226FFD6CF81E390E0089521
:101E800082EE90E0089508950F931F93CF938C01F5
:101E9000FB018281811106C0C1E08C2FCF911F917F
:101EA0000F910895C0915701C11125C00531104708
:101EB00099F70E94430F81E0809357010E94371EDB
:101EC000909356018093550110924A0110924C0153
:101ED00010924B0110924E0110924D011092500140
:101EE00010924F0110925201109251011092540120
:101EF00010925301D2CF80915501909156010E94CA
:101F0000431E883C910540F680914A01E82FF0E09D
:101F1000EE0FFF1FE55BFE4F118300838F5F809301
:101F20004A01C0E0BACF0C94800B0C94810B85B7AA
:101F3000806885BF85B7806885BFAAE2B1E061E0AF
:101F400070E08D91E82FE295EF70F0E041A18F7085
:101F50009B0101C0220F8A95EAF7922F9095942356
:101F600091A382A1822B82A381E0A133B80749F714
:101F7000A3E1B1E061E070E08D91E82FE295EF70B0
:101F8000F0E041A18F709B0101C0220F8A95EAF712
:101F9000922F9095942391A382A1822B82A381E01A
:101FA000AA32B80749F7E4E7F1E0A8E5B1E080E933
:101FB00091E011921192119211921D921D921D9217
:101FC0001D928E179F07A9F70C94D70C2F923F9262
:101FD0004F925F926F927F928F929F92AF92BF9239
:101FE000CF92DF92EF92FF920F931F93CF93DF93E5
:101FF000CDB7DEB72B970FB6F894DEBF0FBECDBFBF
:1020000088E5282E81E0382E0AE211E01E830D8338
:1020100038862F82C12CD12C7601C394AF81B8852C
:102020008D909D90AD90BD90B887AF83FD011292C9
:10203000129212921292FB87EA87AD81BE818D9136
:10204000BE83AD83E82FE295EF70F0E091A18F7031
:1020500001E010E002C0000F111F8A95E2F71A8319
:102060000983802F892B81A382A100950987802372
:1020700082A310EA1A95F1F723E131E03C832B8328
:1020800090E080E0AB81BC817D90BC83AB83272D49
:1020900022952F7030E0D90190965C90AA85BB857F
:1020A0004D915D916D917C91272D2F7001E010E095
:1020B00002C0000F111F2A95E2F79801252109F0AF
:1020C0007AC097018601082E04C0000F111F221F3D
:1020D000331F0A94D2F7280139014429552966296A
:1020E0007729AA85BB854D935D936D937C93139758
:1020F00001968731910531F681A11985182311A325
:1021000082A1B9818B2B82A3EA85FB858081918195
:10211000A281B38188169906AA06BB0649F0F1E0B0
:10212000F09390010E94371E909392018093910149
:102130000F8118850457114009F070CF80919001EC
:102140008823E9F080919101909192010E94431EB1
:102150000697A8F024E731E0F10181919191A191D6
:10216000B1911F01F90181939193A193B1939F01C3
:10217000F4E72F16F1E03F0679F7109290010E94E4
:10218000C50C81E02B960FB6F894DEBF0FBECDBF15
:10219000DF91CF911F910F91FF90EF90DF90CF9043
:1021A000BF90AF909F908F907F906F905F904F9077
:1021B0003F902F900895412C512C32018ECFCF9318
:1021C000DF9300D000D0CDB7DEB794E0899FF00157
:1021D0001124EC58FE4F80819181A281B381BC0112
:1021E000CD010F900F900F900F90DF91CF91089538
:1021F000089590939801809397010895E091970135
:10220000F0919801309721F00190F081E02D099430
:1022100080E00895E0919701F0919801309721F0C6
:102220000280F381E02D09940895E0919701F091E7
:102230009801309721F00480F581E02D09940895EC
:1022400020919501309196012817390771F09093EC
:10225000960180939501E0919701F0919801309754
:1022600021F00680F781E02D0994089520919301D3
:10227000309194012817390771F09093940180935D
:102280009301E0919701F0919801309721F000843B
:10229000F185E02D0994089508950C944C110E9445
:1022A0002E1E0E94970F0E94F71E0C9496224F92AA
:1022B0005F926F927F929F92AF92BF92CF92DF9286
:1022C000EF92FF920F931F93CF93DF9300D000D034
:1022D0000F92CDB7DEB70E94E60F2AE9A22E21E0C9
:1022E000B22E10E000E0902E802F0E94DF106B01D4
:1022F0007C01F50141905190619071905F014C1407
:102300005D046E047F0409F475C08091850281FD2F
:102310000E94F81090E080E04C245D246E247F241D
:10232000B301A201082E04C076956795579547958D
:102330000A94D2F740FF59C089839A82412C512CCC
:102340003201439404C0440C551C661C771C8A95CA
:10235000D2F7C420D520E620F72081E0CD28CE2872
:10236000CF2809F480E08B830E94371E8160782F8C
:102370009D838C8349815A816B818D810E942612B5
:10238000000F111F000F111FF801E656FE4F80814C
:102390009181A281B38184259525A625B7258083C7
:1023A0009183A283B3830E94A4210E94FE10909186
:1023B00099018917B1F10E94FE10809399010F9045
:1023C0000F900F900F900F90DF91CF911F910F9171
:1023D000FF90EF90DF90CF90BF90AF909F907F9055
:1023E0006F905F904F900C94090D01968731910585
:1023F00009F096CF0F5F1F4F0730110509F073CF1B
:102400008FEF89838A831B820E94371E8160782F19
:102410009D838C8349815A816B818D810E94261214
:10242000C2CF0F900F900F900F900F90DF91CF9130
:102430001F910F91FF90EF90DF90CF90BF90AF90E2
:102440009F907F906F905F904F900895CF93DF9310
:10245000CDB7DEB72B970FB6F894DEBF0FBECDBF5A
:102460004F83588769877A878B871E8285E0FE01B4
:102470003796DE01119601900D928A95E1F7498118
:102480005A816B817C818D819E812B960FB6F89449
:10249000DEBF0FBECDBFDF91CF910C94BD18882356
:1024A00009F4D8C0823871F40E94FE1081FDD2C0B8
:1024B00089E30E94621C0E942C1D89E30E949F1CDC
:1024C0000C942C1D833859F40E94FE1080FDC2C06C
:1024D00083E50E94621C0E942C1D83E5EFCF8438A7
:1024E00059F40E94FE1082FDB5C087E40E94621C70
:1024F0000E942C1D87E4E2CF9CEF980F913A18F4CC
:102500000E94621CDDCF90E2980F983050F48770E3
:1025100091E001C0990F8A95EAF7892F0E94E31C88
:10252000CFCF9BE5980F933070F4853A31F0863A1F
:1025300039F083E890E00C94201181E890E0FBCF23
:1025400082E890E0F8CF98E5980F953108F082C0C6
:10255000883A09F440C0893A09F440C08A3A09F43B
:1025600040C08B3A09F440C08C3A09F440C08B3B20
:1025700009F440C08C3B09F440C08D3A09F440C0D6
:10258000803B09F440C08E3A09F440C08F3A09F408
:1025900040C0813B09F440C0823B09F440C0833B0A
:1025A00009F440C0843B09F440C0853B09F440C0B5
:1025B000863B09F440C0873B09F440C0883B09F4DE
:1025C00040C0893B09F440C08A3B09F440C090E018
:1025D00080E00C94361182EE90E0FBCF89EE90E023
:1025E000F8CF8AEE90E0F5CF85EB90E0F2CF86EB66
:1025F00090E0EFCF83EB90E0ECCF84EB90E0E9CF7D
:1026000087EB90E0E6CF8CEC90E0E3CF8DEC90E0B0
:10261000E0CF83E891E0DDCF8AE891E0DACF82E98C
:1026200091E0D7CF84E991E0D4CF81E292E0D1CF9D
:1026300083E292E0CECF84E292E0CBCF85E292E0DB
:10264000C8CF86E292E0C5CF87E292E0C2CF8AE2AD
:1026500092E0BFCF0895882309F44BC0823871F40B
:102660000E94FE1081FF45C089E30E94621C0E9407
:102670002C1D89E30E949F1C0C942C1D833859F457
:102680000E94FE1080FF35C083E50E94621C0E94FC
:102690002C1D83E5EFCF843859F40E94FE1082FF91
:1026A00028C087E40E94621C0E942C1D87E4E2CFB0
:1026B0009CEF980F913AF0F290E2980F983050F416
:1026C000877091E001C0990F8A95EAF7892F0E94DF
:1026D000E91CD2CF9BE5980F933020F490E080E086
:1026E0000C942011885A853120F490E080E00C94FD
:1026F00036110895882321F00E94E31C0C942C1DB0
:102700000895882321F00E94E91C0C942C1D089543
:102710008F929F92AF92BF92DF92EF92FF920F93B0
:102720001F93CF93DF9300D000D00F92CDB7DEB7C9
:102730007C016D837983FC01058102950F70128104
:1027400011110E94021D0E945B1CD82E882371F07B
:102750001123A1F08D81805E883080F082E00E949C
:10276000451C0E945B1C91E0D82ED926E981E29598
:10277000EF70F0E0EE53F44D0C945B2BD12CF6CFC0
:1027800009810F70F981F07F11F00295007F11230C
:10279000B1F0002361F08D81805E883018F02D81CA
:1027A000211109C0802F0E94E31C0E942C1D8D81E5
:1027B0000E944F1215C0802F0E94F41CF6CF8D810D
:1027C0000E942B13002361F08D81805E883018F009
:1027D0003D81311129C0802F0E94E91C0E942C1DCF
:1027E000DD2009F4F3C10E94381C80FDEFC1F70120
:1027F00012820E94321C0E947B1AC7010E94F715A8
:102800000E94321C0F900F900F900F900F90DF914D
:10281000CF911F910F91FF90EF90DF90BF90AF90FD
:102820009F908F900C949D1A802F0E94FA1CD6CFF7
:1028300049814F70B42E5981507F503219F0B294B3
:1028400080EFB8228D81882369F0813029F111232E
:1028500069F1002359F0F701858180FFA8CF8F70BF
:10286000858304C0112361F0011104C08B2D0E94E7
:102870007A13B6CF8B2D0130D1F70E94161DB0CF41
:10288000011106C00E94191D8B2D0E948113A8CF33
:10289000013009F4A5CFF6CF112321F0063008F05E
:1028A0009FCFE4CF053008F09BCFEECF002361F33C
:1028B0008D810E942B1394CF898186958695837094
:1028C00069F0813009F08CCF8D819981937011115D
:1028D00002C090E080E00E94361182CF8D81998104
:1028E0009370111102C090E080E00E94201178CF17
:1028F0008D81112329F00E94B2200E94992170CF6E
:102900000E941A21FACF8981837009F05FC01111EA
:1029100067CF2D81229526952770220F220F8D815A
:102920008F7090E0B0E0A0E04C015D01022E04C089
:10293000880C991CAA1CBB1C0A94D2F7FD8160E08C
:1029400070E0CB01F4FF0FC06FE070E080E090E03A
:1029500004C0660F771F881F991F2A95D2F76095CC
:1029600070958095909529812695269523702D83C5
:102970002230B1F0233019F19B01AC01282939290B
:102980004A295B2929833A834B835C833D81698192
:102990007A818B819C813130B1F00E94081A20CF5E
:1029A0009B01AC01282939294A295B2929833A83CB
:1029B0004B835C83CA01B9010E94321A11CF0E9475
:1029C000081AC501B4010E94DE190ACF86951123A9
:1029D00011F089818170882309F402CF2D8122951D
:1029E00026952770220F220F8D818F7090E0B0E026
:1029F000A0E04C015D01022E04C0880C991CAA1CA9
:102A0000BB1C0A94D2F73D8160E070E0CB0134FF3B
:102A10000FC06FE070E080E090E004C0660F771FA9
:102A2000881F991F2A95D2F760957095809590958B
:102A300049814695469543704D834230B1F043300D
:102A400019F19B01AC01282939294A295B292983DD
:102A50003A834B835C833D8169817A818B819C8140
:102A60003130B1F00E940E1BBBCE9B01AC01282976
:102A700039294A295B2929833A834B835C83CA011C
:102A8000B9010E94381BACCE0E940E1BC501B401D7
:102A90000E94E41AA5CE3D81323F09F447C080F47C
:102AA000303F79F1313FD9F1832F805E8031D0F012
:102AB000112309F456C001117ACE89818F7133C078
:102AC0004D81433FD1F1443F99F7112309F43FC0B1
:102AD00089818F7189830E947B1A63E089810E94BA
:102AE0003C1C7ECE5D815F705D8389818F71112377
:102AF00021F00E947B1A8D81BACE0E949D1A8D8191
:102B0000C4CE112341F0053008F06ACE89818F715F
:102B10000E94C21A65CE063008F062CEF7CF8981D6
:102B20008F71112339F00E947B1A5ACE89818F71DF
:102B30001123C9F30E949D1A53CE112329F08981D4
:102B40008F710E94661A4CCE0E945C1A49CE81E0B9
:102B50000E94451C023008F443CE82E00E94451CCE
:102B60003FCE0111A5CE89818F71E4CF49814F708D
:102B70006D81C7010E947D0B0E94571931CE111142
:102B80002FCEE981EF70E983E23099F028F4E1116A
:102B90000DC00E94A82224CEF981F33069F0F430F0
:102BA00009F01ECE8D810E9410231ACE0E94C022F1
:102BB00017CE0E94D92214CE0E94ED2211CE498157
:102BC0004F706D81C7010E940B0D0ACE0F900F90C0
:102BD0000F900F900F90DF91CF911F910F91FF9069
:102BE000EF90DF90BF90AF909F908F9008950F93DC
:102BF0001F93CF93DF93EC018B819C81892B29F06C
:102C00008881998189238F3F29F4DF91CF911F918A
:102C10000F910895CE010E94960B8823B1F368812D
:102C200079818A810E94081C8C010E94621B0E948B
:102C3000D319B801CE01DF91CF911F910F910C9460
:102C400088130E94021D0E94131D0E94D51C0E9421
:102C50002C1D0E948A220E94992190E080E00E940F
:102C6000201190E080E00C9436110E94F11C0C942D
:102C700021160E94FC1B282F892F82958F70903C73
:102C800080F48A30B0F4843020F4823090F480E014
:102C900008958630E1F781E0203E88F0213FB9F7C2
:102CA0000EC08C3011F08F3091F793FB882780F99C
:102CB000089581E0203F39F018F4203E40F7089550
:102CC000243F29F7FCCF0895CF93DF9300D000D0A5
:102CD0000F92CDB7DEB70F900F900F900F900F901F
:102CE000DF91CF910895CF93DF9300D000D000D033
:102CF000CDB7DEB726960FB6F894DEBF0FBECDBFB8
:102D0000DF91CF9108951F93CF93DF93E091B701A7
:102D100016E08091B8018E1304C0DF91CF911F910E
:102D20000895CE2FD0E01E9FF0011124E754FE4FEE
:102D30004081518162817381848195810E947316E3
:102D4000FE013196E770E5CF4091E9015091EA012B
:102D50006091EB017091EC018091ED019091EE0199
:102D60000C9473161F93CF93DF938091EE01807FB5
:102D7000C1F48091EB018823A1F08091B701C0914B
:102D8000B8016091E9017091EA014091EC01509124
:102D9000ED01D62FD723DA01A095B09516E0C81320
:102DA00004C0DF91CF911F91089590E04115510526
:102DB00011F0DF3F31F401968770F1CF2A0F3B1FEE
:102DC00017C0189FF001199FF00D1124E754FE4F12
:102DD00021812713F0CF20812613EDCF22812111ED
:102DE000EACF238134812417350740F3241B350BA8
:102DF000283C310500F72091EE012F7020612093CF
:102E0000EE0126E0289FF001299FF00D1124E254E5
:102E1000FE4F80818F708061808389EE91E00E94F7
:102E2000F715DF91CF911F910C9483169F92AF926B
:102E3000BF92CF92DF92EF92FF920F931F93CF93A7
:102E4000DF93CDB7DEB72B970FB6F894DEBF0FBE7A
:102E5000CDBF8C0185E0F801DE01179601900D923F
:102E60008A95E1F7D8014C9111965C9111971296D1
:102E7000EC9012978091EC019091ED01009709F48C
:102E80006BC12091E9013091EA01632F62236F3F0A
:102E900009F462C11396CD90DC909090EB019920DB
:102EA00009F4F8C0C816D90608F43FC0F601E81BBB
:102EB000F90BCF01FF24F394883C910508F0F12C25
:102EC00089EEA82E81E0B82E8091EE01982F907F98
:102ED000FF2009F4B7C0911180C0FE2C35132AC021
:102EE000241328C0E11026C08F7080618093EE010A
:102EF0000E94A416C5010E94F7158091EE01D80129
:102F000015968C938F2D2B960FB6F894DEBF0FBEBF
:102F1000CDBFDF91CF911F910F91FF90EF90DF9088
:102F2000CF90BF90AF909F900895809590958C0D15
:102F30009D1DC0CFCD2829F0842F85238F3F09F018
:102F400019C180E0B82FB170DB2EE091B70120915C
:102F5000B80136E080FD1CC0EE20A1F28091EE01A8
:102F600081608093EE01F12CCDCF8E2F90E03E9FBB
:102F7000F0011124E754FE4F6181651306C06081A2
:102F8000641303C062816E11E7CFFC013196E770D4
:102F9000E213EBCF4F8358878F8198850E94FC1BEB
:102FA000292F22952F70903260F0225F2F702230EF
:102FB00078F49F7051F0F8019581907F31F4D12C15
:102FC0000AC09F7011F08823D1F3805E8830B8F377
:102FD000C8010E94F715FD2C95CF351306C02413A8
:102FE00004C0D801EE2009F47BC04F8358878F813D
:102FF00098850E943916882309F4B8C0EE2009F498
:10300000B5C08091EE01803270F02091E9013091DD
:10301000EA013A8329831B82DD82CC828E83CE0132
:1030200001960E94F71586E0F801A9EEB1E0019043
:103030000D928A95E1F70E94B2160E94A416FF2411
:10304000F39460CF911113C07C2DDB86CA866E2D60
:103050008B850E94641689EE91E00E94F71586E048
:10306000F50111928A95E9F70E94A4164BCF35130A
:10307000BCCF2413BACFE110B8CFD80115968C93EA
:10308000C8010E94F71586E0F50111928A95E9F7CB
:10309000F92C38CFC816D90688F1B601681B790B10
:1030A000CB01F12C883C910508F047C0FE2CEE20A6
:1030B00009F45CC0351330C024132EC08091EE019A
:1030C00080FD21C0982F907FF1F0D80115968C9348
:1030D0001597903F39F0982F907F905F8F70892BD4
:1030E00015968C93C8010E94F71586E0F801A9EEA9
:1030F000B1E001900D928A95E1F7B6CF8095909559
:103100008C0D9D1DCECF86E0F801A9EEB1E00190B7
:103110000D928A95E1F7F6CE4F8358878F81988577
:103120000E94391681117FCF8091EE0181608093DA
:10313000EE01C8010E94F715E5CE7C2DDB86CA861C
:103140006E2D8B850E94641686E0E9EEF1E0DF01CA
:103150001D928A95E9F788CFEE2041F04F8358877A
:103160008F8198850E94391681115DCFC8010E9418
:10317000F71565CF81E08E25E5CE1F93CF93DF93C2
:10318000CDB7DEB72C970FB6F894DEBF0FBECDBF1C
:103190004F83588769877A878B879C87CE010796EC
:1031A0000E941617882369F08A859B85892B39F040
:1031B0004F815885842F85238F3F09F071C016E019
:1031C0005FC086E0FE013796DE01119601900D92F8
:1031D0008A95E1F78A859B85892B89F388859F816C
:1031E00089238F3F61F32091B80130E0C901019636
:1031F000877099274091B7014817190671F40E940A
:1032000035161092B8011092B70186E0E9EEF1E0B0
:10321000DF011D928A95E9F7D2CF96E0929FD00107
:10322000939FB00D1124A754BE4FFE01319601901B
:103230000D929A95E1F78093B8010E948316BFCF53
:10324000819FC001112487549E4F0E941617882326
:10325000E9F0E091B7011E9FF0011124E754FE4F01
:103260004081518162817381848195810E947316AE
:103270008091B70190E00196877099278093B701FC
:103280008091B7019091B8018913DACF2C960FB6CF
:10329000F894DEBF0FBECDBFDF91CF911F9108958F
:1032A00069857A858B859C850E94731688CFEF92FD
:1032B000FF920F931F93CF93DF938C01892B89F09B
:1032C000F12CEE24E394E8012196F80184918437EF
:1032D00009F457C0A0F4823009F43EC048F48130AC
:1032E000D1F0DF91CF911F910F91FF90EF90089552
:1032F0009CEF980F9037A8F70E944F120AC08537AD
:1033000009F44CC09CE7980F903758F78F770E94CC
:103310002B138E0116C00E5F1F4FFE01849190E2A9
:10332000980F983060F48770FE2D01C0FF0F8A95CA
:10333000EAF78F2F0E94051D0E942C1D02C00E94DB
:103340004F128F2D815008F4BECFEFE9FFE0319787
:10335000F1F700C00000F6CF0E5F1F4FFE01849111
:1033600090E2980F983050F48770FE2D01C0FF0F47
:103370008A95EAF78F2F0E940B1DDECF0E942B1338
:10338000E0CF0E5F1F4FFE01C491C150D0F28FE914
:103390009FE00197F1F700C00000F7CF0E5F1F4FCD
:1033A000FE01F490CECF089560935C0270935D02AD
:1033B00080935E0290935F020C942116CF93DF936B
:1033C00000D000D0CDB7DEB769837A838B839C832E
:1033D00080915C0290915D02A0915E02B0915F02CB
:1033E00029813A814B815C81822B932BA42BB52BB5
:1033F00080935C0290935D02A0935E02B0935F02A3
:103400000F900F900F900F90DF91CF910C94211699
:10341000CF93DF9300D000D0CDB7DEB769837A8336
:103420008B839C8380915C0290915D02A0915E02EF
:10343000B0915F0229813A814B815C818223932381
:10344000A423B52380935C0290935D02A0935E0257
:10345000B0935F020F900F900F900F90DF91CF917C
:103460000C942116CF93DF9300D000D0CDB7DEB7F8
:1034700069837A838B839C8380915C0290915D0247
:10348000A0915E02B0915F0229813A814B815C81FB
:1034900082279327A427B52780935C0290935D022F
:1034A000A0935E02B0935F020F900F900F900F9069
:1034B000DF91CF910C94211610925802109259026C
:1034C00010925A0210925B020C94211641E050E0D7
:1034D00060E070E004C0440F551F661F771F8A9597
:1034E000D2F7409358025093590260935A02709356
:1034F0005B020C942116282F81E090E0A0E0B0E060
:1035000004C0880F991FAA1FBB1F2A95D2F74091AC
:1035100058025091590260915A0270915B02842BBB
:10352000952BA62BB72B8093580290935902A0930A
:103530005A02B0935B020C94211641E050E060E027
:1035400070E004C0440F551F661F771F8A95D2F79D
:1035500040955095609570958091580290915902D0
:10356000A0915A02B0915B0284239523A623B7232E
:103570008093580290935902A0935A02B0935B0231
:103580000C942116282F81E090E0A0E0B0E004C068
:10359000880F991FAA1FBB1F2A95D2F74091580286
:1035A0005091590260915A0270915B0284279527CD
:1035B000A627B7278093580290935902A0935A02E6
:1035C000B0935B020C942116CF93DF9300D000D010
:1035D000CDB7DEB769837A838B839C838091580251
:1035E00090915902A0915A02B0915B0229813A81CF
:1035F0004B815C81822B932BA42BB52B809358029B
:1036000090935902A0935A02B0935B020F900F90CF
:103610000F900F90DF91CF910C942116CF93DF93F1
:1036200000D000D0CDB7DEB769837A838B839C83CB
:103630008091580290915902A0915A02B0915B0278
:1036400029813A814B815C8182239323A423B52372
:103650008093580290935902A0935A02B0935B0250
:103660000F900F900F900F90DF91CF910C94211637
:10367000CF93DF9300D000D0CDB7DEB769837A83D4
:103680008B839C838091580290915902A0915A0299
:10369000B0915B0229813A814B815C81822793271B
:1036A000A427B5278093580290935902A0935A02F9
:1036B000B0935B020F900F900F900F90DF91CF911E
:1036C0000C9421160895E82F27E1929FE00D112414
:1036D0008E2F877041E001C0440F8A95EAF7E69586
:1036E000E695E69585E0E89FF0011124E151FE4F53
:1036F00030E020E070E05191DF011197CB01022E04
:1037000002C0969587950A94E2F781708195852786
:10371000842385278C932F5F3F4F2530310559F740
:103720000895E82F27E1929FE00D11249E2F9770B6
:10373000E695E695E69585E0E89FF0011124E151D4
:10374000FE4F50E040E080E0219130E0092E02C0C1
:10375000369527950A94E2F721703327042E01C08D
:10376000220F0A94EAF7822B4F5F5F4F45305105D5
:1037700059F70895BF92CF92DF92EF92FF920F9385
:103780001F93CF93DF938C01C0905802D0905902C1
:10379000E0905A02F0905B0280915C0290915D0291
:1037A000A0915E02B0915F02C82AD92AEA2AFB2AB8
:1037B000CFE1D0E0BC2ED701C6010C2E04C0B695D7
:1037C000A795979587950A94D2F780FD0EC021970B
:1037D00088F7B12C8B2DDF91CF911F910F91FF9026
:1037E000EF90DF90CF90BF900895B8018C2F0E948A
:1037F000280D019761F3EECFCF93DF93D82FC92F18
:103800000E94BA1B6D2F7C2FDF91CF910C94280D55
:103810001F93CF93DF93162FD72F9091B601992343
:1038200039F0862F972FDF91CF911F910C94FC1BBD
:10383000882391F0862F972F0E94BA1BC82F682FDC
:10384000812F9D2F0E94631B612F7D2F8C2FDF9175
:10385000CF911F910C94280D862F972F0E94911BBA
:10386000C82FF2CF80916002859585958595089542
:10387000809160028770089598E0899F90011124DB
:10388000622B609360020C947B1A90916002809589
:10389000892380936002282F277061F4282F082E37
:1038A000000C330B9217130629F0859585958595A5
:1038B0000C949D1A089590916002977081E009F42C
:1038C00080E00895909112019923E1F09091B60261
:1038D00097FF18C0E82FE695E695E695EF3139F1A8
:1038E0002091000130910101E20FF32FF11D87704B
:1038F00021E030E001C0220F8A95EAF78181822B16
:10390000818308952091000130910101F9013296DF
:103910009FEF40E05191851751F09F3F19F45111ED
:1039200001C0942F4F5F4E31A9F79F3F09F40895CE
:10393000290F311D97FD3A95F901828308959091E1
:103940001201992301F19091B60297FF1CC0E82F54
:10395000E695E695E695EF3139F120910001309139
:103960000101E20FF32FF11D877021E030E0A90182
:1039700002C0440F551F8A95E2F7CA0180959181D4
:103980008923818308952091000130910101F9017B
:103990003296205E3F4F9191891303C0DF0111974A
:1039A0001C92E217F307B9F7089581E090E0E091E7
:1039B0000001F0910101E80FF91F10820196803299
:1039C0009105A9F7089590918402982B9093840211
:1039D0000895982F90958091840289238093840282
:1039E000089510928402089590918302982B9093E9
:1039F00083020895982F9095809183028923809364
:103A00008302089510928302089590918202982B68
:103A1000909382020895982F909580918202892335
:103A20008093820208951092820208958093610229
:103A300008951092610208952091000130910101D2
:103A4000F9013196205E3F4F80E0919191118F5F97
:103A5000E217F307D1F70895E0910001F091010119
:103A6000809184028083E0910001F09101018081C6
:103A700090918302892B8083E0910001F0910101F4
:103A8000808190918202892B808390916102992399
:103A900061F0E0910001F09101018081892B808328
:103AA0000E941C1D81111092610280910001909171
:103AB00001010C940A116DEE7EEF90E080E00E940F
:103AC000982B60E082E090E00E94862B60E083E02B
:103AD00090E00E94862B60E084E090E00E94862BBC
:103AE00060E085E090E00E94862B60E086E090E058
:103AF0000C94862B90E080E00E94802B9C0181E05A
:103B00002D3E3E4F09F080E0089582E090E00C9455
:103B1000782B682F82E090E00C94862B83E090E075
:103B20000C94782B682F83E090E00C94862B84E033
:103B300090E00C94782B682F84E090E00C94862B16
:103B400086E090E00C94782B682F86E090E00C944F
:103B5000862B8091BD02843051F11092860288E15B
:103B600090E020E40FB6F894A895809360000FBE13
:103B70002093600080E00E94DB0C80E00E94090D31
:103B800083B7817F846083BF83B7816083BF78946C
:103B9000889583B78E7F83BF0FB6F894A8958091E0
:103BA0006000886180936000109260000FBE0895ED
:103BB00008950895CF93DF9300D000D00F92CDB732
:103BC000DEB70E94D81D0E94E60F0E94D91D1D82FB
:103BD0008D810E94DF10672B682B692B71F48D811A
:103BE0008F5F8D838730A1F780E00F900F900F904B
:103BF0000F900F90DF91CF91089581E0F6CF0E9452
:103C000035160E9496220E94FE100C94090D1F92F8
:103C10001FB61F9211248F939F93AF93BF938091F0
:103C20008602811113C08091B2029091B302A091DB
:103C3000B402B091B5024196A11DB11D8093B202AC
:103C40009093B302A093B402B093B502BF91AF9129
:103C50009F918F911F901FBE1F90189582E084BD89
:103C600093E095BD9AEF97BD80936E0008952FB7AE
:103C7000F8948091B2029091B302A091B402B091F5
:103C8000B5022FBF0895CF92DF92EF92FF929C0171
:103C90004FB7F8948091B2029091B302A091B40210
:103CA000B091B5024FBF6C017D01EE24FF24A90144
:103CB00070E060E0C416D506E606F70638F0821B11
:103CC000930BFF90EF90DF90CF9008950197F7CF7F
:103CD0001F921FB61F9211248F939F93AF93BF9390
:103CE0008091B2029091B302A091B402B091B5025A
:103CF0000196A11DB11D8093B2029093B302A093CF
:103D0000B402B093B502BF91AF919F918F911F9074
:103D10001FBE1F9018950E941327F8942FEF87EA73
:103D200091E6215080409040E1F700C0000087E01C
:103D300090EBDC018093C6029093C702A093C80267
:103D4000B093C90288E19CE00FB6F894A8958093DF
:103D500060000FBE90936000FFCFAF92BF92CF92F2
:103D6000DF92EF92FF920F931F93CF93C0E0A82EA4
:103D7000B12C8C2F0E94DF106B017C0110E000E061
:103D8000D701C601002E04C0B695A79597958795D3
:103D90000A94D2F780FF13C0602F7C2F80E00E942E
:103DA0000C0DA816B90659F481E0CF911F910F911F
:103DB000FF90EF90DF90CF90BF90AF9008950F5F8E
:103DC0001F4F07311105E1F6CF5FC73091F680E054
:103DD000ECCFCF93C82F8CE20E94AD1E882321F038
:103DE0008C2FCF910C94AD1E80E0CF910895CF938E
:103DF000DF9300D000D0CDB7DEB70E947A1D8111CD
:103E000002C00E945B1D95E6998308C00E94E60FE0
:103E10008FE39CE90197F1F700C00000A981A15050
:103E2000A983A111F3CF89E20E94E91E811110C17B
:103E30008AE20E94E91E81110E945B1D85E00E94BA
:103E4000E91E81110E948B1E0E94851D80938502B0
:103E500087E00E94E91E882371F08BE10E94E91E31
:103E6000882309F4D1C090918502892F8D7F91FF1D
:103E7000826080938502809185020E94891D0E9444
:103E8000971D90E09093B7028093B60280EE0E9457
:103E9000E91E882341F09091B602892F8E7F90FF12
:103EA00081608093B60289E30E94E91E882341F075
:103EB0009091B602892F8D7F91FF82608093B60228
:103EC00082EE0E94E91E882341F09091B602892F6C
:103ED0008B7F92FF84608093B60286EE0E94E91E7B
:103EE000882341F09091B602892F877F93FF8860E5
:103EF0008093B60283EE0E94E91E882341F09091E0
:103F0000B602892F8F7E94FF80618093B60285E38D
:103F10000E94E91E882341F09091B602892F8F7D7F
:103F200095FF80628093B60281E30E94E91E882398
:103F300041F09091B602892F8F7B96FF8064809329
:103F4000B60281E10E94E91E882341F09091B602F9
:103F5000892F97FB87F980588093B6028091B6022B
:103F60000E949B1D87E20E94E91E89838EE10E94C8
:103F7000E91E882319F0B981B260B9838FE10E94EC
:103F8000E91E882319F029812460298380E20E9498
:103F9000E91E882319F039813860398381E20E9453
:103FA000E91E882319F049814061498382E20E9419
:103FB000E91E882319F059815062598383E20E94D7
:103FC000E91E882319F089818064898384E20E9434
:103FD000E91E8823B1F199819068998389810E94B3
:103FE000921D3981232F30E050E040E029833A834D
:103FF0004B835C83CA01B9010F900F900F900F9013
:10400000DF91CF910C94D4198EE00E94E91E882391
:1040100039F090918502892F8B7F92FF846029CFA0
:1040200080E10E94E91E90918502882329F0892F62
:10403000877F93FF88601DCF892F8E7F90FF8160DF
:1040400018CFA981A111CACF0E948E1D282FCBCFD6
:104050000F900F900F900F90DF91CF910895809166
:10406000890280FF12C06091050185E0689FB00160
:104070001124759567957595679560387105A8F554
:1040800061157105A1F1862F089581FF09C0609126
:10409000050185E0689FB001112475956795EDCF06
:1040A0006091050182FD0AC080918A028823D1F0C7
:1040B0009091040160910501891728F085E0689FBF
:1040C000B0011124DACF869FB001112485E0869FCC
:1040D0009001879F300D1124692F70E0C9010E9463
:1040E000472BCBCF65E070E0CECF8FE7089581E01E
:1040F00008958091890280FF0CC06091030170E0F7
:1041000075956795759567956115710549F1862FC8
:10411000089581FF06C06091030170E07595679571
:10412000F3CF6091030182FD0BC090918A02992325
:10413000A1F06091020180910301961738F0682F79
:1041400070E06038710500F38FE70895899FC00122
:10415000112470E00E94472BF4CF61E070E0D7CFCC
:1041600081E00895803F31F40E942F208195809353
:104170008D020895813F19F40E942F20F8CF823FCD
:1041800031F40E942F20819580938C020895833F03
:1041900019F40E942F20F8CF893F29F40E9479203A
:1041A00080938E0208958A3F21F40E9479208195A0
:1041B000F7CF8B3F31F40E947920819580938F0255
:1041C00008958C3F19F40E947920F8CF843F31F490
:1041D00080918B02816080938B020895853F21F44A
:1041E00080918B028260F7CF863F21F480918B0211
:1041F0008460F1CF873F21F480918B028860EBCF00
:10420000883F21F480918B028061E5CF8D3F31F4AE
:104210008091890281608093890208958E3F21F404
:10422000809189028260F7CF8F3FB9F78091890230
:104230008460F1CF90918C02803F41F480918D0297
:1042400087FD10928D02992371F00895813F29F422
:1042500080918D021816ACF3F6CF823F81F497FF60
:10426000F2CF10928C0280918D0290918E02892B58
:1042700090918F02892B49F710928A020895833F0B
:1042800019F4191674F3DFCF893F39F480918E0247
:104290001816CCF610928E02D6CF8A3F29F4809160
:1042A0008E0287FFD0CFF6CF8B3F39F480918F02FB
:1042B00087FFC9CF10928F02C6CF8C3F29F480911F
:1042C0008F021816BCF3BFCF843F31F480918B026C
:1042D0008E7F80938B02B7CF853F21F480918B0234
:1042E0008D7FF7CF863F21F480918B028B7FF1CFBA
:1042F000873F21F480918B02877FEBCF883F21F4A9
:1043000080918B028F7EE5CF8D3F31F480918902C1
:104310008E7F8093890297CF8E3F21F4809189020E
:104320008D7FF7CF8F3F09F08ECF809189028B7FF1
:10433000F0CF8BE892E00E9415110E94371E9093F7
:1043400088028093870208951F93CF93DF9300D054
:1043500000D000D0CDB7DEB780918702909188025F
:104360000E94431EAC0180918A022091060130E038
:10437000811106C0209107019AE0299F9001112424
:104380004217530788F020918C02A0918D02A983D7
:1043900010918E02B0918F02BE8321110FC09A2F0F
:1043A000912B9B2B09F0B2C026960FB6F894DEBF76
:1043B0000FBECDBFDF91CF911F9108958F3F19F0B0
:1043C0008F5F80938A02121624F40E942F2080931C
:1043D0008C0280918C0287FF05C00E942F2081955E
:1043E00080938C022981121624F40E942F2080933E
:1043F0008D0280918D0287FF05C00E942F2081953C
:1044000080938D0280918C02882309F455C03091ED
:104410008D023D83332309F44FC0282F880F330BBF
:10442000440B550B29833A834B835C83CA01B90142
:104430000E944E2A23E333E343E35FE369837A83F5
:104440008B839C8369817A818B819C810E94B22AB3
:1044500069837A838B839C8369817A818B819C8138
:104460000E94162A60938C028D81082E000C990BF5
:10447000AA0BBB0B89839A83AB83BC83BC01CD01A0
:104480000E944E2A23E333E343E35FE369837A83A5
:104490008B839C8369817A818B819C810E94B22A63
:1044A00069837A838B839C8369817A818B819C81E8
:1044B0000E94162A60938D02111624F40E9479201E
:1044C00080938E0280918E0287FF05C00E94792022
:1044D000819580938E029E81191624F40E94792082
:1044E00080938F0280918F0287FF05C00E94792000
:1044F000819580938F0226960FB6F894DEBF0FBE8B
:10450000CDBFDF91CF911F910C9499218F3F09F07E
:1045100057CF68CF85E0EBE8F2E0DF011D928A9586
:10452000E9F710928A021092890208950E947A1D7A
:10453000811102C00E945B1D0E94A01D982F8093D4
:10454000B802817090FF02C0892F86950C94DB0C15
:104550008091B802982F9695863030F49F5F990F1E
:104560008170892B8093B8028091B802816080931A
:10457000B8020E94A41D8091B80286950C94DB0CB1
:104580008091B802982F9E7F79F082508093B80274
:104590008E7F91E009F490E08091B80290FB80F961
:1045A0008093B8020E94A41D8091B80286950C9455
:1045B000DB0C9091B802892F8E7F90FF81608093F1
:1045C000B8020E94A41D9091B802892F817090FFBB
:1045D00002C0892F86950C94DB0C9091B802892F2C
:1045E00086958F5F8F7791708430B8F4880F892B10
:1045F0008093B8028091B8028E7F91E009F490E038
:104600008091B80290FB80F98093B8020E94A41DAB
:104610008091B80286950C94DB0C9093B802EACF97
:104620009091B802292F26952827220F9170922B5E
:104630009093B8029E7F21E009F420E08091B802B7
:1046400020FB80F98093B8020E94A41D8091B802DB
:1046500086950C94DB0C8091B0020895CF93DF9384
:1046600000D00F92CDB7DEB72091BD02243019F5EE
:1046700023E029838A839B832093E9008FEF909125
:10468000E800815095FD06C095ED9A95F1F7000080
:104690008111F5CF8091E80085FF0DC050E040E02A
:1046A00063E070E0CE0101960E948B258091E800C6
:1046B0008E778093E8000F900F900F90DF91CF914D
:1046C0000895CF93DF9300D00F92CDB7DEB79C0152
:1046D0008091BD02843031F582E089832058310910
:1046E0003B832A8383E08093E9008FEF9091E80079
:1046F000815095FD06C095ED9A95F1F70000811166
:10470000F5CF8091E80085FF0DC050E040E063E008
:1047100070E0CE0101960E948B258091E8008E7793
:104720008093E8000F900F900F90DF91CF91089544
:104730002091BD022430F1F422E02093E9002FEF14
:104740003091E800215035FD06C035ED3A95F1F77E
:1047500000002111F5CF2091E80025FF0BC050E0AB
:1047600040E065E070E00E948B258091E8008E7744
:104770008093E8000895CF93DF93D82FC92F8091BD
:10478000BD028430F1F4909112019923E9F09091E7
:10479000B60297FF19C08093E9008FEF9091E8006F
:1047A000815095FD06C095E19A95F1F700008111C1
:1047B000F5CF8091E80050E040E060E270E085FDD8
:1047C0001AC0DF91CF91089581E08093E9008FEFC7
:1047D0009091E800815095FD06C095ED9A95F1F70E
:1047E00000008111F5CF8091E80085FFEACF50E00D
:1047F00040E068E070E08D2F9C2F0E948B25809117
:10480000E8008E778093E80080E2ED2FFC2FA0E98E
:10481000B2E001900D928A95E1F7D3CF8091BC026E
:10482000811109C00E9413270E9475278091E20020
:1048300084608093E20008951092BC020895089568
:1048400008950C94FF1D42E061EC81E00E948F26E8
:1048500042E061EC82E00E948F2642E061EC83E05E
:104860000E948F2642E261EC84E00C948F268091B6
:10487000BF02893089F148F4823009F494C0833052
:1048800009F44FC0813041F008958A3009F47BC0AB
:104890008B3009F461C008958091BE02813A09F01D
:1048A0003FC08091E800877F8093E8008091C2023A
:1048B0009091C302892B61F460E280E992E070E09C
:1048C0000E94DA258091E8008B778093E8000895B4
:1048D00060E090E080E0F3CF8091BE02813201F58C
:1048E0008091C2029091C302009711F00397C1F426
:1048F0008091E800877F8093E8008091E80082FF44
:104900000BC08091F1008093B0028091E8008B771A
:104910008093E8000C94C3268091BD028111EDCFF5
:1049200008958091BE02813AD9F78091C202909198
:10493000C302892BA9F78091E800877F8093E80064
:104940008091E80080FFFCCF809112018093F100FC
:104950008091E8008E77DCCF8091BE02813201F732
:104960008091C2029091C302892BD1F68091E80018
:10497000877F8093E8000E94C3268091C0028093C5
:1049800012010C9435168091BE02813249F6809155
:10499000E800877F8093E8000E94C3268091C102CF
:1049A0008093B10208958091BE02813A09F0B8CF98
:1049B0008091E800877F8093E8008091E80080FF85
:1049C000FCCF8091B102C2CF84B7877F84BF0FB67E
:1049D000F894A8958091600088618093600010929F
:1049E00060000FBE80E880936100109261000E9419
:1049F0004D110E9413270E9475278091E200846068
:104A00008093E20078940E94FB290E944F1188E075
:104A100091E00E94F9108091BD02853019F00E944A
:104A20005711F9CF0E94A91D8091BB02882399F3E9
:104A30000E94DA1D882379F30E947525ECCF9C0132
:104A4000DA01892F992783309105C1F068F481300C
:104A5000910509F445C0029761F48DE690E028EED7
:104A600034E12D933C93089581329105E1F08297D2
:104A700039F190E080E030E020E0F3CFC9019927E0
:104A8000213059F08230910559F0E4EEF4E1892BA0
:104A900081F7849190E09F01E4CFECECF4E1F9CF51
:104AA000E8EBF4E1F6CF643020F7E62FF0E0EE0F0C
:104AB000FF1FE35CFE4F2081318189E090E0D1CF80
:104AC0006430B8F670E0FB01EE0FFF1FEB5CFE4FA9
:104AD000208131816F5C7E4FFB01808190E0C1CFEE
:104AE00082E190E025E535E1BCCF84E189BD86E136
:104AF00089BD09B400FEFDCF8091D8008F7D8093E1
:104B0000D8008091E00082608093E0008091E00016
:104B100081FDFCCF0895AF92BF92CF92DF92FF92BA
:104B20000F931F93CF93DF936C01EB018A010E94D7
:104B3000E226F82E811123C00115110539F0F80184
:104B400080819181C81BD90BC80ED91EB12CA12C14
:104B50002097A9F08091E80085FD22C08091E800AF
:104B60008E778093E80001151105A1F0F80180818E
:104B70009181A80EB91EB182A08285E0F82E8F2DFA
:104B8000DF91CF911F910F91FF90DF90CF90BF9059
:104B9000AF9008950E94E2268823D1F2F82EEFCF3D
:104BA000F60181916F018093F1002197FFEFAF1A19
:104BB000BF0ACECFFC01CB012091C4023091C502C7
:104BC0002617370790F0009729F42091E8002E77F8
:104BD0002093E80040E0009751F4411108C0809113
:104BE000E80082FF31C080E00895C901F3CF209131
:104BF000BD022223A9F12530A9F12091E80023FD6F
:104C00002DC02091E80022FDEACF2091E80020FF8E
:104C1000E2CF2091F2003091F300009719F0283094
:104C2000310558F041E02830310509F040E020918D
:104C3000E8002E772093E800CECF41914093F10019
:104C400001972F5F3F4FE9CF8091BD02882341F04C
:104C5000853041F08091E80083FFC1CF81E0089565
:104C600082E0089583E00895FC01CB012091C40205
:104C70003091C5022617370790F0009729F420914C
:104C8000E8002E772093E80040E0009751F44111AE
:104C900008C08091E80082FF32C080E00895C90119
:104CA000F3CF2091BD022223B1F12530B1F1209143
:104CB000E80023FD2EC02091E80022FDEACF2091DC
:104CC000E80020FFE2CF2091F2003091F30000973E
:104CD00019F02830310558F041E02830310509F04D
:104CE00040E02091E8002E772093E800CECF449159
:104CF0004093F100319601972F5F3F4FE8CF8091AD
:104D0000BD02882341F0853041F08091E80083FFA7
:104D1000C0CF81E0089582E0089583E00895982F40
:104D2000973028F08F708093E90081E00895909388
:104D3000E900242F762F50E0981731F07091EC00A5
:104D40002091ED005091F00021FD02C09F5FE8CF5F
:104D50003091EB003E7F3093EB003091ED003D7FD2
:104D60003093ED003091EB0031603093EB007093A5
:104D7000EC002093ED005093F0002091EE0027FD11
:104D8000E5CF80E008958091BE0287FF13C0809137
:104D9000E80082FF06C08091E8008B778093E800EE
:104DA00004C08091BD028111F2CF08958091BD02AF
:104DB0008823D9F38091E80080FFF8CF8091E80044
:104DC0008E77ECCF2091E4003091E50095E6A901C3
:104DD0002091EC00822F817020FF06C08091E800B6
:104DE00080FF06C080E008952091E80022FD1AC0EF
:104DF0008091BD02882389F0853089F08091EB0095
:104E000085FD0FC02091E4003091E5004217530763
:104E1000F9F29150E1F684E0089582E0089583E08C
:104E2000089581E008950E9484270E948C27E0EE77
:104E3000F0E0808181608083E8EDF0E080818F7711
:104E4000808319BCA7EDB0E08C918E7F8C9380811C
:104E50008F7E80831092BC0208950F931F93CF938F
:104E6000DF930E9484270E948C27C8EDD0E08881C0
:104E70008F77888388818068888388818F7D888305
:104E8000E7EDF0E080818068808319BC1092BD025C
:104E90001092B9021092BB021092BA0200EE10E01A
:104EA000F80180818B7F808388818160888342E0E4
:104EB00060E080E00E948F26E1EEF0E080818E7F4E
:104EC0008083E2EEF0E08081816080838081886071
:104ED0008083F80180818E7F8083888180618883D0
:104EE000DF91CF911F910F910895E8EDF0E080815F
:104EF0008F7E8083E7EDF0E080818160808381E0B8
:104F00008093BC020C942D27E8EDF0E080818C7F2B
:104F100080831092E20008951092DA001092E1006E
:104F200008951F920F920FB60F9211240BB60F9295
:104F30002F933F934F935F936F937F938F939F93A1
:104F4000AF93BF93EF93FF938091E10082FF0BC07B
:104F50008091E20082FF07C08091E1008B7F809307
:104F6000E1000E94FA298091DA0080FF19C0809147
:104F7000D80080FF15C08091DA008E7F8093DA0020
:104F80008091D90080FF96C084E189BD86E189BD0A
:104F900009B400FEFDCF81E08093BD020E940E2483
:104FA0008091E10080FF19C08091E20080FF15C070
:104FB0008091E2008E7F8093E2008091E200806128
:104FC0008093E2008091D80080628093D80019BC61
:104FD00085E08093BD020E9420248091E10084FF3F
:104FE00029C08091E20084FF25C084E189BD86E16B
:104FF00089BD09B400FEFDCF8091D8008F7D8093DC
:10500000D8008091E1008F7E8093E1008091E200E2
:105010008F7E8093E2008091E20081608093E200C5
:105020008091B902882309F44BC084E08093BD02CB
:105030000E9421248091E10083FF29C08091E20039
:1050400083FF25C08091E100877F8093E10082E0AB
:105050008093BD021092B9028091E1008E7F80930F
:10506000E1008091E2008E7F8093E2008091E20077
:1050700080618093E20042E060E080E00E948F2641
:105080008091F00088608093F0000E941F24FF91BF
:10509000EF91BF91AF919F918F917F916F915F91B0
:1050A0004F913F912F910F900BBE0F900FBE0F901D
:1050B0001F90189519BC1092BD020E941C2470CF3D
:1050C0008091E30087FD02C081E0B0CF83E0AECFE6
:1050D0001F920F920FB60F9211240BB60F922F93BF
:1050E0003F934F935F936F937F938F939F93AF9370
:1050F000BF93CF93DF93EF93FF93D091E900DF70DD
:105100008091EC00C82FC17080FDC0E81092E900CA
:105110008091F000877F8093F00078940E94B028FF
:105120001092E9008091F00088608093F000CD2B10
:10513000CF70C093E900FF91EF91DF91CF91BF91C4
:10514000AF919F918F917F916F915F914F913F911F
:105150002F910F900BBE0F900FBE0F901F901895C0
:105160001F93CF93DF93CDB7DEB7AA970FB6F8940E
:10517000DEBF0FBECDBF8EEB92E0FC010196209109
:10518000F100208322E0863C9207B9F70E94372481
:105190008091E80083FF16C18091BE029091BF020A
:1051A0009A3008F00FC1E92FF0E0EE52F44D0C9464
:1051B0005B2B803881F0823809F004C18091C202F3
:1051C0008F708093E9008091EB0085FB882780F940
:1051D0001092E90006C08091BA029091BB02911131
:1051E00082609091E800977F9093E8008093F100AF
:1051F0001092F1008091E8008E77E0C0882309F4D6
:10520000CEC0823009F0DEC08091C0028111D1C0D1
:105210008091C2028F7009F4D5C08093E90020917B
:10522000EB0020FFC6C0933031F48091EB00806228
:105230008093EB00BEC09091EB0090619093EB00E7
:1052400021E030E001C0220F8A95EAF72093EA00BE
:105250001092EA008091EB008860EACF8111B2C021
:105260001091C0021F778091E3008078812B80939A
:10527000E3008091E800877F8093E8000E94C326C6
:105280008091E80080FFFCCF8091E30080688093EC
:10529000E30082E0111183E08093BD0293C0805847
:1052A000823008F08FC08091C0029091C1028C3D85
:1052B00023E09207A1F583E08A838AE289834FB7CE
:1052C000F894DE01139620E03EE051E2E32FF0E097
:1052D00050935700E49120FF03C0E295EF703F5FC9
:1052E000EF708E2F90E0EA30C0F0C7968D939D93BB
:1052F0002F5F243159F74FBF8091E800877F80935B
:10530000E8006AE270E0CE0101960E94DA25809101
:10531000E8008B778093E80055C0C096E7CFAE01D8
:105320004F5F5F4F6091C2020E941F25BC01892B15
:1053300009F448C08091E800877F8093E800898164
:105340009A810E943426E3CF8038E1F58091E8000D
:10535000877F8093E8008091B9028093F1004ACF63
:10536000811130C09091C002923060F58091E800C8
:10537000877F8093E8009093B9020E94C3268091B2
:10538000B902882311F084E005C08091E30087FD15
:10539000FACF81E08093BD020E94232413C0809144
:1053A000C002813079F481E0933009F080E080938D
:1053B000BB021092E9008091E800877F8093E800AB
:1053C0000E94C3268091E80083FF0AC08091E80014
:1053D000877F8093E8008091EB0080628093EB00F0
:1053E000AA960FB6F894DEBF0FBECDBFDF91CF9166
:1053F0001F9108950895CF938091BD028823A1F055
:10540000C091E900CF709091EC00892F817090FDE0
:1054100080E8C82B1092E9008091E80083FD0E948B
:10542000B028CF70C093E900CF9108950E941D2A43
:105430006894B1110C94AC2A08950E94912A88F0C6
:105440009F5798F0B92F9927B751B0F0E1F0660F48
:10545000771F881F991F1AF0BA95C9F714C0B13089
:1054600091F00E94AB2AB1E008950C94AB2A672F0B
:10547000782F8827B85F39F0B93FCCF386957795B8
:105480006795B395D9F73EF49095809570956195A1
:105490007F4F8F4F9F4F0895E89409C097FB3EF4CC
:1054A00090958095709561957F4F8F4F9F4F992371
:1054B000A9F0F92F96E9BB279395F69587957795EF
:1054C0006795B795F111F8CFFAF4BB0F11F460FFAF
:1054D0001BC06F5F7F4F8F4F9F4F16C0882311F007
:1054E00096E911C0772321F09EE8872F762F05C01B
:1054F000662371F096E8862F70E060E02AF09A95B6
:10550000660F771F881FDAF7880F9695879597F9AA
:10551000089557FD9058440F551F59F05F3F71F0A3
:105520004795880F97FB991F61F09F3F79F087950A
:105530000895121613061406551FF2CF4695F1DF93
:1055400008C0161617061806991FF1CF8695710523
:10555000610508940895E894BB2766277727CB0157
:1055600097F908950E94C52A0C94362B0E94282B87
:1055700038F00E942F2B20F0952311F00C941F2B54
:105580000C94252B11240C94AC2A0E94892A70F3C8
:10559000959FC1F3950F50E0551F629FF001729FD8
:1055A000BB27F00DB11D639FAA27F00DB11DAA1FE7
:1055B000649F6627B00DA11D661F829F2227B00D34
:1055C000A11D621F739FB00DA11D621F839FA00DBF
:1055D000611D221F749F3327A00D611D231F849F0F
:1055E000600D211D822F762F6A2F11249F57504066
:1055F0009AF0F1F088234AF0EE0FFF1FBB1F661FE1
:10560000771F881F91505040A9F79E3F510580F0A9
:105610000C941F2B0C94AC2A5F3FE4F3983ED4F318
:10562000869577956795B795F795E7959F5FC1F74D
:10563000FE2B880F911D9695879597F9089597F9F8
:105640009F6780E870E060E008959FEF80EC089528
:1056500000240A9416161706180609060895002451
:105660000A9412161306140605060895092E0394CB
:10567000000C11F4882352F0BB0F40F4BF2B11F43F
:1056800060FF04C06F5F7F4F8F4F9F4F089597FB60
:10569000072E16F4009407D077FD09D00E94642BE2
:1056A00007FC05D03EF4909581959F4F0895709525
:1056B00061957F4F0895EE0FFF1F0024001C0BBE65
:1056C0000790F691E02D0994AA1BBB1B51E107C07E
:1056D000AA1FBB1FA617B70710F0A61BB70B881F82
:1056E000991F5A95A9F780959095BC01CD01089511
:1056F000F999FECF92BD81BDF89A992780B508959A
:10570000A8E1B0E042E050E00C94A02B262FF999DC
:10571000FECF92BD81BDF89A019700B4021639F010
:105720001FBA20BD0FB6F894FA9AF99A0FBE0895E1
:105730000196272F0E94872B0C94862BDC01CB012E
:10574000FC01F999FECF06C0F2BDE1BDF89A319691
:1057500000B40D9241505040B8F70895F894FFCF2F
:10576000360C420C460C4A0C4E0C520C560C5A0C81
:105770005E0C620C660C6A0C6E0C720C760C7A0C69
:105780007E0C820CC013C013181418145C14781407
:10579000F013F0138314F0134B154B15B615BF150A
:1057A000F013DF15D928FE28E229FE28E2292E2948
:0857B0004F29E229A429B029C8
:1057B80062022808140A321E2B23BB239823612374
:1057C8002E230195F6F5F430943132333435369082
:1057D8009697F3F2F1020100F70760C70605040384
:1057E80067404D36392316D615A0156715FA1413D8
:0657F800152C15451500FB
:00000001FF
